:020000040800F2
:1000000000000120250300080F0400081104000867
:10001000130400081504000817040008000000007D
:1000200000000000000000000000000019040008AB
:100030001B040008000000001D0400081F04000845
:1000400069030008690300086903000869030008E0
:1000500069030008690300086903000869030008D0
:1000600069030008690300086903000869030008C0
:1000700069030008690300086903000869030008B0
:1000800069030008690300086903000869030008A0
:100090006903000869030008690300086903000890
:1000A0006903000869030008690300086903000880
:1000B0006903000869030008690300086903000870
:1000C0006903000869030008690300086903000860
:1000D0006903000821040008690300086903000897
:1000E0006903000869030008690300086903000840
:1000F0006903000869030008690300086903000830
:10010000690300086903000869030008690300081F
:10011000690300086903000869030008690300080F
:1001200069030008690300086903000869030008FF
:1001300000000000000000000000000000000000BF
:1001400000000000000000000000000000000000AF
:10015000000000000000000000000000000000009F
:10016000000000000000000000000000000000008F
:10017000000000000000000000000000000000007F
:10018000000000000000000000000000000000006F
:10019000000000000000000000000000000000005F
:1001A000000000000000000000000000000000004F
:1001B000000000000000000000000000000000003F
:1001C000000000000000000000000000000000002F
:1001D000000000000000000000000000000000001F
:0401E0005FF8E0F1F3
:1001E400044B05481B1A062B02D9044B03B11847CC
:1001F400704700BF1700002014000020000000001A
:1002040005490648091A891001EBD171491002D039
:10021400034B03B11847704714000020140000205A
:100224000000000010B5064C237843B9FFF7D8FF4F
:10023400044B13B10448AFF300800123237010BDB5
:100244001400002000000000E401000808B5084B79
:100254001BB108490848AFF300800848036813B984
:10026400BDE80840CCE7064B002BF9D09847F7E7E8
:100274000000000018000020E40100081400002021
:100284000000000008B500F0DDF900F055FA00F0B8
:10029400A3FA024800F0B6FA002008BD2C080008B2
:1002A40040F0BF60024B40F40030D860704700BF9C
:1002B40000ED00E0C27810B503780AB3164A03F1E2
:1002C4006043D1684278C943C1F30221C1F10404F7
:1002D40002FA04F40F22CA40817803F561430A400C
:1002E40022431201D2B283F8002303780122590970
:1002F40003F01F0302FA03F3084A42F8213010BD49
:100304005A09012103F01F0301FA03F303492032C0
:1003140041F8223010BD00BF00ED00E000E100E034
:10032400002103E00A4B5B584350043109480A4B4F
:1003340042189A42F6D3094A02E0002342F8043BE9
:10034400074B9A42F9D300F07DF9FFF79BFF704702
:1003540050080008000000201400002014000020B1
:1003640030000020FEE7CA782DE9F041D40648BFEA
:100374008C780E8802F00F0348BF234316F0FF0F5A
:100384001ED0016800244FF0010E4FF00F0C0EFA3E
:1003940004F737EA06050FD1A5000CFA05F821EA9F
:1003A400080103FA05F5282A41EA050101D147614C
:1003B40002E0482A08BF07610134082CE7D1016034
:1003C400FF2E20D9416800244FF0010E4FF00F0C8E
:1003D40004F108050EFA05F535EA06070FD1A70062
:1003E4000CFA07F821EA080103FA07F7282A41EA78
:1003F400070101D1456102E0482A08BF05610134C3
:10040400082CE5D14160BDE8F0817047FEE7FEE7C6
:10041400FEE7FEE7704770477047704710B540F23B
:1004240025510C4800F0EEF898B10A4800F0E0F8C5
:1004340004462021074800F0DFF80028F9D0E1B293
:10044400044800F0D1F88021024800F0D5F80028D3
:10045400F9D010BD003801401C4A10B5536803F0B0
:100464000C03042B01D0082B01D0194B0EE0536868
:100474005168C3F38343CC0303F1020302D55168EB
:10048400890301D5134900E011494B4303605368C4
:10049400114CC3F30313E15C0368CB404360516820
:1004A400C1F30221615C23FA01F181605168C1F357
:1004B400C221615CCB40C36052680849C2F38132F7
:1004C4008A5CB3FBF2F3036110BD00BF001002406D
:1004D40000127A0000093D00040000200000002002
:1004E400044B9A6909B1104301E022EA00009861C3
:1004F400704700BF0010024070B50E460446038AE0
:10050400CA889BB223F440531343038282898988A7
:10051400338992B20B43718922F4B0520B4322F017
:100524000C0213439BB28381838AB2899BB223F466
:10053400407386B01343838201A8FFF78DFF174AE7
:10054400039B049D3168944218BF1D4619226A43D7
:10055400A389642613F4004F14BF4D008D00B2FB31
:10056400F5F5B5FBF6F0A28900010109120406FBBA
:10057400115307D5D9003231B1FBF6F202F007026C
:10058400104306E01A013232B2FBF6F303F00F0314
:10059400184380B2208106B070BD00BF003801400E
:1005A400838919B19BB243F4005303E023F400534D
:1005B4001B041B0C83817047012310B5C1F3421443
:1005C4009C4201F01F0103FA01F101D10C3003E058
:1005D400022C0CBF1030143003680AB1194301E037
:1005E40023EA0101016010BDC1F308018180704755
:1005F4008088C0F3080070470388194214BF0120A3
:1006040000207047012310B5C1F3421401F01F020A
:100614009C4203FA02F201D1838903E0022C0CBF4D
:10062400038A838A9BB21340028892B243B10123A6
:10063400090A03FA01F10A4214BF1846002010BD4A
:10064400184610BD384B82B01A6842F001021A6095
:100654005968364A0A405A601A6822F0847222F4B1
:1006640080321A601A6822F480221A605A6822F4CE
:10067400FE025A604FF41F029A6000220092019217
:100684001A6842F480321A601A6802F40032019245
:10069400009A01320092019A1AB9009AB2F5A06F39
:1006A400F2D11A6812F4003218BF01220192019AA1
:1006B400012A05D01E4B4FF000629A6002B07047C9
:1006C4001C4A116841F010011160116821F0030106
:1006D4001160116841F0020111605A685A605A6849
:1006E4005A605A6842F480625A605A6822F47C1252
:1006F4005A605A6842F4E8125A601A6842F08072EA
:100704001A601968084A8901FBD5516821F0030170
:100714005160516841F0020151605A6802F00C02C4
:10072400082AFAD1C6E700BF001002400000FFF813
:1007340000ED00E00020024030B5012187B04FF405
:100744008040FFF7CDFE01210420FFF7C9FE0121FF
:100754000846FFF7C5FE1F4C4FF48063ADF8043024
:1007640004230DEB0301032520468DF807308DF893
:100774000650FFF7F8FD4FF40073ADF8043001A9FB
:10078400182320468DF807308DF80650FFF7EBFD4F
:100794004FF4165304F5405402930023ADF80C3083
:1007A400ADF80E30ADF81030ADF8143002A90C23BA
:1007B4002046ADF81230FFF79FFE0122204640F29A
:1007C4002551FFF7F9FE01212046FFF7E9FE07B0A6
:1007D40030BD00BF0008014007B54FF4C060FFF70B
:1007E4005FFD25238DF804300022012301A88DF834
:1007F40005308DF806208DF80730FFF75BFD03B058
:100804005DF804FB10B5441E14F8011F49B10548F6
:10081400FFF7EAFE80210348FFF7EEFE0028F9D037
:10082400F2E710BD0038014031323300F8B500BFA3
:10083400F8BC08BC9E467047F8B500BFF8BC08BCBD
:040844009E46704715
:040848005102000851
:04084C002902000875
:100850000204060800000000010203040102030470
:040860000607080976
:0400000508000325C7
:00000001FF
