:020000040800F2
:1000000000000120F11C0008D5190008D7190008CC
:10001000D9190008DB190008DD19000800000000EC
:10002000000000000000000000000000DF190008D0
:10003000E119000800000000C9020008E3190008E7
:10004000351D0008351D0008351D0008351D000848
:10005000351D0008351D0008351D0008351D000838
:10006000351D0008351D0008351D0008351D000828
:10007000351D0008351D0008351D0008351D000818
:10008000351D0008351D0008351D0008351D000808
:10009000351D0008351D0008351D0008351D0008F8
:1000A000351D0008351D0008351D0008351D0008E8
:1000B000351D0008351D0008351D0008351D0008D8
:1000C000351D0008351D0008351D0008351D0008C8
:1000D000351D0008F5190008351D0008351D0008FC
:1000E000351D0008351D0008351D0008351D0008A8
:1000F000351D0008351D0008351D0008351D000898
:10010000351D0008351D0008351D0008351D000887
:10011000351D0008351D0008351D0008351D000877
:10012000351D0008351D0008351D0008351D000867
:1001300000000000000000000000000000000000BF
:1001400000000000000000000000000000000000AF
:10015000000000000000000000000000000000009F
:10016000000000000000000000000000000000008F
:10017000000000000000000000000000000000007F
:10018000000000000000000000000000000000006F
:10019000000000000000000000000000000000005F
:1001A000000000000000000000000000000000004F
:1001B000000000000000000000000000000000003F
:1001C000000000000000000000000000000000002F
:1001D000000000000000000000000000000000001F
:0401E0005FF8E0F1F3
:1001E400044B05481B1A062B02D9044B03B11847CC
:1001F400704700BF1B000020180000200000000012
:1002040005490648091A891001EBD171491002D039
:10021400034B03B118477047180000201800002052
:100224000000000010B5064C237843B9FFF7D8FF4F
:10023400044B13B10448AFF300800123237010BDB5
:100244001800002000000000E401000808B5084B75
:100254001BB108490848AFF300800848036813B984
:10026400BDE80840CCE7064B002BF9D09847F7E7E8
:10027400000000001C000020E40100081800002019
:1002840000000000EFF3108072B6704780F310880E
:1002940070471D48FF210170002080F309881B4826
:1002A400012101701A484FF08051016062B6FEE7E7
:1002B40017484FF080510160704715484FF0805146
:1002C4000160704772B6EFF3098028B1203880E8E6
:1002D400F00F10490968086000B50F4880475DF8C1
:1002E40004EB0E480E490A7802700A480D490A6860
:1002F4000260106890E8F00F203080F309884EF017
:10030400040E62B67047000022ED00E035050020BF
:1003140004ED00E050080020A11A00083D0500206B
:100324003C050020340800208168436830B541EA68
:100334000302C368C46A1A430369082942EA030230
:100344004369416B42EA030283690D6842EA03028E
:10035400C36942EA0302036A42EA0302436A42EAC5
:100364000302836A43EA0203026B43EA040343EA97
:10037400020302684FEA820202F12042136002BFC4
:10038400136843F0400313608B69B4F5804F43EA6C
:1003940005034D6843EA05138D6843EA0523CD68D8
:1003A40043EA05430D69496943EA055343EA016396
:1003B400536010D1816B08688B690343486843EA32
:1003C4000013886843EA00230869496943EA005333
:1003D40043EA016301E06FF07043C2F8043130BDB9
:1003E400800000F1204019B1036843F0010302E0EA
:1003F4000268024B13400360704700BFFEFF0F000A
:10040400CA782DE9F041D40648BF8C780E8802F0F2
:100414000F0348BF234316F0FF0F1ED001680024CA
:100424004FF0010E4FF00F0C0EFA04F737EA0605F1
:100434000FD1A5000CFA05F821EA080103FA05F525
:10044400282A41EA050101D1476102E0482A08BF90
:1004540007610134082CE7D10160FF2E20D94168DF
:1004640000244FF0010E4FF00F0C04F108050EFAB2
:1004740005F535EA06070FD1A7000CFA07F821EABB
:10048400080103FA07F7282A41EA070101D1456167
:1004940002E0482A08BF05610134082CE5D1416017
:1004A400BDE8F08101617047416170471C4A10B595
:1004B400536803F00C03042B01D0082B01D0194B13
:1004C4000EE053685168C3F38343CC0303F1020382
:1004D40002D55168890301D5134900E011494B4302
:1004E40003605368114CC3F30313E15C0368CB400E
:1004F40043605168C1F30221615C23FA01F1816018
:100504005168C1F3C221615CCB40C36052680849A1
:10051400C2F381328A5CB3FBF2F3036110BD00BF06
:100524000010024000127A0000093D00040000207F
:1005340000000020044B5A6909B1104301E022EA8B
:1005440000005861704700BF00100240044B9A69D4
:1005540009B1104301E022EA00009861704700BF2E
:100564000010024040F0BF60024B40F40030D860FD
:10057400704700BF00ED00E0C27810B503780AB3FD
:10058400164A03F16043D1684278C943C1F302219A
:10059400C1F1040402FA04F40F22CA40817803F57D
:1005A40061430A4022431201D2B283F80023037844
:1005B4000122590903F01F0302FA03F3084A42F81F
:1005C400213010BD5A09012103F01F0301FA03F37E
:1005D4000349203241F8223010BD00BF00ED00E095
:1005E40000E100E070B50E460446038ACA889BB257
:1005F40023F440531343038282898988338992B256
:100604000B43718922F4B0520B4322F00C021343C2
:100614009BB28381838AB2899BB223F4407386B0F0
:100624001343838201A8FFF741FF174A039B049DEC
:100634003168944218BF1D4619226A43A38964266F
:1006440013F4004F14BF4D008D00B2FBF5F5B5FB5C
:10065400F6F0A28900010109120406FB115307D523
:10066400D9003231B1FBF6F202F00702104306E082
:100674001A013232B2FBF6F303F00F03184380B2CF
:10068400208106B070BD00BF00380140838919B1D4
:100694009BB243F4005303E023F400531B041B0CEC
:1006A40083817047012310B5C1F342149C4201F0C9
:1006B4001F0103FA01F101D10C3003E0022C0CBF3D
:1006C4001030143003680AB1194301E023EA010130
:1006D400016010BDC1F30801818070478088C0F3B8
:1006E400080070470388194214BF01200020704796
:1006F400012310B5C1F3421401F01F029C4203FA16
:1007040002F201D1838903E0022C0CBF038A838A9D
:100714009BB21340028892B243B10123090A03FA3F
:1007240001F10A4214BF1846002010BD184610BD3E
:10073400384B82B01A6842F001021A605968364A8E
:100744000A405A601A6822F0847222F480321A60D5
:100754001A6822F480221A605A6822F4FE025A604F
:100764004FF41F029A600022009201921A6842F428
:1007740080321A601A6802F400320192009A01323F
:100784000092019A1AB9009AB2F5A06FF2D11A68D0
:1007940012F4003218BF01220192019A012A05D0F5
:1007A4001E4B4FF000629A6002B070471C4A1168F9
:1007B40041F010011160116821F00301116011680A
:1007C40041F0020111605A685A605A685A605A68C6
:1007D40042F480625A605A6822F47C125A605A6861
:1007E40042F4E8125A601A6842F080721A6019687A
:1007F400084A8901FBD5516821F003015160516811
:1008040041F0020151605A6802F00C02082AFAD140
:10081400C6E700BF001002400000FFF800ED00E052
:100824000020024073B501214020FFF78FFE012113
:100834002020FFF78BFE01218020FFF787FE012196
:100844004FF48070FFF782FE01214FF48070FFF7B0
:1008540071FE4CF233730326ADF8043001A918235A
:1008640018488DF807308DF80660FFF7C9FD4FF67C
:100874008073154C01A91548ADF80430FFF7C0FD8D
:10088400012301A91248ADF80430FFF7B9FD4FF474
:10089400805301A92046ADF804300225FFF7B0FDCE
:1008A400102301A920468DF80730ADF804508DF8C7
:1008B4000660FFF7A5FD29462046FFF7F3FD02B0C9
:1008C40070BD00BF00140140002001400018014029
:1008D400001C014010B5052296B002924FF08052E0
:1008E4000692022310220093062400230A9207A8EA
:1008F4004FF480520193039304930593089309934F
:100904000B930C930D930E930F93109211931293D8
:1009140013930794CDF850D0CDF854D0FFF704FDCD
:1009240001212046FFF75CFD16B010BD114B70B1DC
:1009340001281BD146F63F3118700F4B4FF0D842B7
:10094400108019801121118046F238020CE042F621
:100954003F3118704FF0D84201231380064B1980A1
:100964001121118046F230021A80704700221A7059
:10097400704700BF350000200200006C38B546F215
:1009840064640120FFF7D2FF4A4B4FF0D8420021A4
:1009940001201180188011801880032010801C8091
:1009A4000C2414800D241980148040F60C041C803F
:1009B4000E2414804FF42C541C801E241480B02464
:1009C4001C80022414804FF4C0641C801024148002
:1009D4000524198014800624198014801624198093
:1009E40014804EF61C741C80172414801880072071
:1009F400108040F2332018800B2010800F201980C3
:100A040010804120198010804220198010804820D5
:100A14001980108049201980108040F23F104A2428
:100A2400188014804B241980148044241980148065
:100A34004FF46F441C80452414804624198014808C
:100A440018803020108040F2077018803120108008
:100A540032244FF4017018801480332418801480D9
:100A640040F2025434251C80158040F207551D8045
:100A7400352515803625188015801880372010807C
:100A84003A201C80108040F202303B2418801480ED
:100A9400188023201080242019801080198022219E
:100AA40011804FF6FF714FF49632013A1980FCD150
:100AB40038BD00BF0200006C30B5254B1B7813B164
:100AC400012B21D03EE0234B1B7813B100F10F031F
:100AD40000E0C31D1B024FF0D84444229BB2228085
:100AE40003441D4A9BB213804E2323804523108068
:100AF400238001F10F039BB24620118020801380D4
:100B04004F23238011801DE0124B1B7813B100F199
:100B14000F0300E0C31D4FF0D84401F10F05442238
:100B240022802D020C4AADB215804E2525801180FD
:100B3400452121809BB246211080218013804F23C0
:100B44002380108022224FF0D8431A8030BD00BF8A
:100B540035000020340000200200006C2DE9F04133
:100B64001F46184B164601221A70BDF81880FFF76D
:100B7400A3FF40F6E60C144B144A0021C85C3478F9
:100B8400A04204D022316145F8D1BDE8F08103EBE5
:100B9400010E9EF8014070788442F3D100240EEBDC
:100BA40004008078082510F0800F14BF1780A2F885
:100BB40000804000013D80B2F5D10134202CEED1FB
:100BC400E0E700BF34000020361D00080200006C7E
:100BD400F8B515461E460D4B0024BDF818701C7060
:100BE400FFF76AFF21460A4800EB0512094D505CE5
:100BF400082403064CBF2E802F804000013CC0B265
:100C0400F7D101311029F2D1F8BD00BF3400002022
:100C1400102100080200006C2DE9F74306460F4638
:100C240015469846BDF8289000242A78BAB1E00009
:100C340012F0800F3044CDF80090434606D1394677
:100C440080B2FFF7C5FF0135013406E02A46394674
:100C540080B2FFF783FF02350234E4B2E5E703B064
:100C6400BDE8F08330B51B4B4FF0D8421C784421CB
:100C7400194B11804FF46F411980462111800CB13A
:100C8400EF2201E040F23F121A804FF0D8434E2287
:100C94001A80114A0021452411801C804F241180A0
:100CA4001C80118022211980831C00F5A83000F5D6
:100CB400C17003F5B47413F8025C13F8011C023319
:100CC40001EB052189B29C421180F4D18442234670
:100CD400EFD130BD350000200200006C37B50C4C5C
:100CE40001214020FFF732FC10233C258DF807300A
:100CF40001A9032320468DF80630ADF80450FFF710
:100D04007FFB29462046FFF7CDFB03B030BD00BF73
:100D14000018014030B5012187B04FF48040FFF73F
:100D240015FC01210420FFF711FC01210846FFF7FF
:100D34000DFC1F4C4FF48063ADF8043004230DEB1D
:100D44000301032520468DF807308DF80650FFF780
:100D540057FB4FF40073ADF8043001A91823204663
:100D64008DF807308DF80650FFF74AFB4FF4E13356
:100D740004F5405402930023ADF80C30ADF80E3066
:100D8400ADF81030ADF8143002A90C232046ADF8AC
:100D94001230FFF727FC0122204640F22551FFF7CD
:100DA40081FC01212046FFF771FC07B030BD00BF74
:100DB4000008014007B54FF4C060FFF7D3FB2523BB
:100DC4008DF804300022012301A88DF805308DF838
:100DD40006208DF80730FFF7CFFB03B05DF804FB66
:100DE40010B5441E14F8011F49B10548FFF772FC01
:100DF40080210348FFF776FC0028F9D0F2E710BD04
:100E040000380140094B64221B68B3FBF2F3B3F1D1
:100E1400807F0AD2064A013B5360064BF02183F8D7
:100E240023100023936007231360704714000020ED
:100E340010E000E000ED00E008B5FFF779FCFFF7F3
:100E44004DFFFFF7EFFCFFF745FDFFF763FFFFF7EB
:100E5400B1FFFFF793FDBDE80840FFF7D3BF0000E3
:100E6400054A064B127806499A5C895C5B5C03EB85
:100E7400C203044A137070473C080020102900087C
:100E84003D0800203C05002010B5054CFFF7FAF999
:100E9400236801332360FFF7F9F900F0C0FDF5E79B
:100EA40038050020054B1B78012B05D1044A137823
:100EB400FF2B1CBF01331370704700BF35050020A2
:100EC4004C08002010B5164B1B78012B27D1FFF7D7
:100ED400D9F9144B04461A780AB1013A1A701B78EE
:100EE400C3B9114B1B78ABB9FFF7BAFF0F4B1049CD
:100EF4001A78104B53F822300B600F49097891424D
:100F040008D01A6B01321A630C4A13680133136058
:100F1400FFF7D3F92046BDE81040FFF7B7B910BD7D
:100F2400350500204C080020340500203C05002035
:100F340034080020AC1100203D050020C00700202B
:100F440008B50A4B1B7883B9FFF78AFF084B094A97
:100F54001B781370084A52F82330084A1360084A71
:100F64001360BDE80840FFF794B908BD35050020BB
:100F74003C0500203D050020AC1100203408002071
:100F840050080020F8B500F08BFDFFF77BF9234AE9
:100F9400136801331360FFF779F9214B1A78012A9A
:100FA4003BD1204B1978012937D003D3022918BF2C
:100FB40000221A701C4B1D4E1C681D4D012794F80D
:100FC4002A303F2B28D0FFF75DF9636A03B3013B56
:100FD4006362EBB994F8283013F037021CBF23F096
:100FE400370384F8283094F8283014BF84F8297023
:100FF40084F829201B070BD494F82E20337813434C
:1010040094F82C203370A95C94F82D300B43AB5426
:101014006469FFF73BF9D2E7F8BDF8BD5408002036
:1010240035050020BC050020400500203C080020B8
:101034003D08002010B5114B1B6893F82C20D86193
:101044000244D47A93F82D102143D172817A93F813
:101054002E200A43827293F82C10094893F82D40ED
:10106400425C22EA0402425432B9064A93F82E1032
:10107400137823EA0103137010BD00BF5008002049
:101084003D0800203C08002010B590F82C2090F872
:101094002D400A44D37A23EA0403D3722BB990F87F
:1010A4002E208B7A23EA02038B7210BD03460022A2
:1010B40003F80A2F123003F8012F8342FBD1704743
:1010C400002321B1013900F8013B89B2F9E77047E7
:1010D40070B588B000F0A0FC00231846474A484980
:1010E4001360484A1370484A1370484A1370484AB8
:1010F4001370484A1360484A1360484A1360484AC8
:101104001360484A1370484A137058540133082B2B
:101114004FF00002F9D1454B4FF4D1611A70444BA2
:1011240044481A70444B1A60444B1A60FFF7C8FFD6
:101134004FF480714248FFF7C3FF424B424903F228
:101144003C6243F8081C43F8383C4C339342F8D1D2
:10115400384B3D490022C3F880163C49C3F8502659
:101164000A603B493B480B60C821FFF7A9FF3A4B93
:1011740003F1B40103F8142C43F8103C14339942DE
:101184004FF00004F6D1334B344A83F8B440C3F82B
:10119400B840136000F010FB00F0DAFB4FF6FF7369
:1011A4002F4A032680250192009321463F2304966B
:1011B4000394029502F5FE722A4800F0ABFA0DF191
:1011C4001F0229493F2000F0F7F94FF6FE73274A22
:1011D400009301923E23214604960394029502F55E
:1011E400FE72234800F096FA0DF11F0221493E20B9
:1011F40000F0E2F900F011FC08B070BD54080020C2
:101204003D0800204C08002034050020CD070020B4
:1012140035050020C007002038050020AC1200204E
:10122400C4070020A81100203C0800203D05002030
:101234003C050020200B002034080020500800202A
:10124400AC1100206C0B0020102A0008400500207F
:10125400C8070020580A00206C0A00204808002013
:10126400580800208D0E0008122A0008C00500202E
:101274001D130008202A000810B5FFF703F8114BCE
:1012840004461B78C3B9104B1B78ABB9FFF7E8FDD4
:101294000E4B0F491A780F4B53F822300B600E494E
:1012A4000978914208D01A6B01321A630B4A136809
:1012B40001331360FEF7FCFF2046BDE81040FEF743
:1012C400E5BF00BF4C080020340500203C05002089
:1012D40034080020AC1100203D050020C007002088
:1012E40037B50C4D00246946E0B200F08DF958B9C9
:1012F40055F8243043B1012B06D0D9689A6802EB23
:101304008102DA63019A1A640134402CEBD103B0F0
:1013140030BD00BFAC1100202DE9F041174C2378FB
:101324001BB9142000F0AEF8F9E7154A64211368DC
:101334001446B3FBF1F3134D13601BB9FF202B705C
:1013440000F096F9104F114E4FF00008FEF79AFF87
:101354003B68C7F800803360FEF798FF2268336863
:10136400B3FBF2F3C3F164032B7000F059FBFFF7F6
:10137400B7FF0A2000F086F8E8E700BFA8110020B4
:10138400C4070020CC07002038050020AC12002040
:101394002DE9F0411F4606460D469046FEF772FFC2
:1013A400314B1C68002C5AD062691A60FEF76EFF3C
:1013B400079B06F007016360069BF208E360BDF833
:1013C400203084F82C202382012303FA02F28B407C
:1013D40084F82D30254B2560002584F82E20636485
:1013E40084F82B10204684F82A6084F8285084F866
:1013F40029506562C4F80880678284F82F50E5613B
:1014040025622563A5636563E5632564A56400F02F
:1014140046FB204600F002FBFEF734FF144B43F872
:101424002640144BA5611A68626102B19461124AA4
:1014340094F82E101C6013780B4313700F4994F822
:101444002C2094F82D308D5C2B438B540C4A13784C
:1014540001331370FEF71AFF0020BDE8F081FEF798
:1014640015FF4220BDE8F081C8070020102A0008BB
:10147400AC110020400500203C0800203D0800205D
:10148400CD07002070B5124B04461B78FBB9114BF5
:101494001B78E3B9D8B1FEF7F5FE0F4B0F4D1B686F
:1014A40093F82C1093F82D606A5C22EA06026A54C1
:1014B40032B90B4993F82E500A7822EA05020A70D1
:1014C4005C62FEF7E3FEBDE87040FFF7D5BE70BD79
:1014D4004C08002034050020500800203D0800205E
:1014E4003C08002038B50F4C2478B4B90E4C24784D
:1014F400ACB93C2505FB01214FF4616202FB0010ED
:10150400642253434FF47A7103F5FA73B3FBF1F396
:1015140002FB0030FFF7B6FF02E0552400E032245E
:10152400204638BD4C080020340500202DE9F04346
:1015340085B01D46074688469146FEF7A3FE1B4B21
:101544001C781CB1FEF7A2FE3C242BE0184E56F882
:10155400253023BB012346F82530FEF797FE2346AA
:101564004A464146384600F05CFA0294014601942A
:101574000094234622462846FFF70AFF074630B95F
:101584000C4B1B78012B0DD1FFF776FE0AE0FEF71A
:1015940079FE46F82540FEF779FE3C4602E0FEF768
:1015A40075FE2824204605B0BDE8F0834C080020D1
:1015B400AC1100203505002070B5104B05461B7892
:1015C4000E4614460BB1122315E0FEF75BFEFF2D09
:1015D40002BF0B4B1B6893F82A500A4B53F8253073
:1015E4000BB1012B03D1FEF751FE432303E05E64EC
:1015F400FEF74CFE0023237070BD00BF4C08002092
:1016040050080020AC11002070B5044600230B6084
:101614004B600D46FEF736FEFF2C02BF124B1B68D3
:1016240093F82A40114B53F824300BB1012B03D10A
:10163400FEF72CFE432070BD1A8AD20703D4FEF7AE
:1016440025FE452070BDDC689E68FEF71FFE002362
:1016540056F823200AB90133FAE7E41A9A00A400E1
:101664002A606C60002070BD50080020AC1100207E
:1016740070B50546FEF706FE1C4BFF2D1B6803D113
:1016840093F82A50012404E093F82A40631B5C4237
:101694005C41174B53F825301BB9FEF7F7FD482082
:1016A40070BD012B03D1FEF7F1FD432070BD93F80B
:1016B4002C10104D93F82D606A5C22EA06026A54DD
:1016C40032B90D4993F82E500A7822EA05020A70BD
:1016D40093F8282042F0080283F82820FEF7D6FD6C
:1016E4000CB1FFF7C9FD002070BD00BF50080020F9
:1016F400AC1100203D0800203C08002002F0030249
:10170400032A05D1002319B1013940F8043BFAE753
:10171400704700002DE9F04F85B01D4681468A468A
:101724009346DDF84080BDF84870FEF7ABFD1F4BD3
:101734001C781CB1FEF7AAFD3C2433E01C4E56F87D
:10174400253063BB012346F82530FEF79FFD3A465A
:1017540041460F98FFF7D2FF3B465A46514648464A
:1017640000F05FF9119B029701930146CDF80080C8
:10177400BDF838300F9A2846FFF70AFE074630B9FD
:101784000C4B1B78012B0DD1FFF776FD0AE0FEF719
:1017940079FD46F82540FEF779FD3C4602E0FEF768
:1017A40075FD2824204605B0BDE8F08F4C080020C4
:1017B400AC1100203505002010B50E4C78212046D0
:1017C400FFF77EFC04F1180304F1300263600A4B56
:1017D400E26104F148026361E3626263636404F1F9
:1017E4006002E3656367054BE264002262661C6085
:1017F40010BD00BF44050020102A0008D0070020B7
:101804002DE9F0411A4B07461B78884613B1002096
:10181400BDE8F081174EFEF735FD35680DB16B68F4
:101824003360FEF733FD002DF1D0FEF72BFD124B94
:101834001C68BCB122681A60FEF728FD07EB880318
:10184400A360022200236760E7602761A4F8148084
:10185400E38228462A702B816C60FFF727FC284618
:10186400BDE8F081336835606B60FEF70FFDCEE7AD
:101874004C08002048080020380800202DE9F843CF
:1018840003780746022B8846154601D0012302E05F
:101894002C4A107818B12B700020BDE8F8832A4B2D
:1018A4001B781BB10D232B70BDE8F883FEF7EAFC0F
:1018B4007B688146DC8A8CB11969013C0A1D1A6176
:1018C4000E689968DC828A4204BF5A681A61FEF77E
:1018D400DDFC00232B703046BDE8F8831B4E3846F0
:1018E400336893F82820C3F8248042F0040283F874
:1018F400282083F82940FFF79DFB4846FEF7C6FCE5
:10190400FFF7BAFCFEF7BEFC8046306890F8293039
:101914001BB1022B03D10E2305E0046A03E0394610
:10192400FFF7B2FB0A232B7033680022404683F88A
:10193400282083F82920DA611A62FEF7A7FC2046E2
:10194400BDE8F8834C08002034050020500800202E
:1019540010B5094C60212046FFF7B2FB234604F181
:10196400180243F8302BA36104F1480323630023D6
:10197400A364024B1C6010BDD4070020380800206B
:1019840000B58BB0FFF7A4FBFFF756FAFFF7C2F9D7
:10199400FFF710FA0A48FFF723FA0A216846FFF70F
:1019A4002FFF084B084A1860002108230748FFF757
:1019B400BDFDFFF7C5FA00200BB05DF804FB00BFC6
:1019C4002E2A0008B0120020D4000020551C000864
:1019D4007047FEE7FEE7FEE7FEE77047704708B58D
:1019E400FFF760FAFFF7CEFABDE80840FFF76ABADE
:1019F40008B540F225510748FEF77AFE40B1054884
:101A0400FEF76CFEBDE80840C1B20248FEF762BEB4
:101A140008BD00BF003801407047704770477047E9
:101A2400704742F8040C10464FF0807313606FF057
:101A3400010342F8083C4FF0123342F80C3C4FF0DB
:101A4400033342F8103C4FF0023342F8143C4FF099
:101A5400013342F8183C4FF0113342F8203C4FF068
:101A6400103342F8243C4FF0093342F8283C4FF03D
:101A7400083342F82C3C4FF0073342F8303C4FF027
:101A8400063342F8343C4FF0053342F8383C4FF00B
:101A9400043342F81C1C40F83C3D704770477047C3
:101AA4007047000008B504210A48FEF7FDFC002237
:101AB40011464FF496731046FFF714FD04210548B0
:101AC400FEF7F0FC00224FF4967311461046FFF720
:101AD40009FDE8E70018014008B510210948FEF7A0
:101AE400E3FC0023194601221846FFF7FBFC1021F2
:101AF4000448FEF7D7FC0023012219461846FFF7D5
:101B0400F1FCEAE70018014008B508210748FEF790
:101B1400CBFC4FF42F70FFF7B5FC08210348FEF708
:101B2400C1FC4FF42F70FFF7ADFCEEE70018014045
:101B340013B5134C6420FFF7A5FC0DF107024FF415
:101B44007A712068FFF79AFE9DF807300A2B13D8A4
:101B5400DFE803F0060C10120E12121212120A0021
:101B6400FFF73EF9074808E0074806E0074804E0A5
:101B7400074802E0074800E00748FFF731F9D9E7D2
:101B8400B0120020F97B0108BB7B0108C57B01086A
:101B9400D67B0108E17B0108FC7B0108F0B5002439
:101BA40085B08DF80F404FF6E077002520212248BC
:101BB400FEF77AFC00954FF47843204ABE211320A7
:101BC400FFF72AF84FF478431D4ABE21DC20009722
:101BD400FFF722F847F6FF7340F21F560093194AA5
:101BE4002B463C21FA20FFF717F83B46164ADC2126
:101BF40028460096FFF710F81448FFF733F801233E
:101C04001A4629462846FFF76DFC20210A48FEF7AC
:101C140049FC0A22B4FBF2F3651C02FB134404AA38
:101C2400303402F8014D4FF478430096D221DC2081
:101C3400FEF7F2FF2C46B6E7001801400B7C0108C2
:101C44001A7C0108257C01082C7C0108332A000831
:101C5400BFB51C4F07231C4A00211C48FFF766FC34
:101C64000024012650250623009307F19C022146F7
:101C740004960394029501971548FFF74BFD05233D
:101C84000093144A2146049603940295019712483E
:101C9400FFF740FD114A04230192009302F59E725E
:101CA40021460496039402950D48FFF733FD032360
:101CB4000C4A21460C48FFF739FC6420FFF7E2FB8D
:101CC400FBE700BF1402002070010020A91A0008DD
:101CD4000D1B000810020020DD1A0008F403002088
:101CE400351B0008F0030020A11B0008002103E0BD
:101CF4000A4B5B584350043109480A4B42189A4234
:101D0400F6D3094A02E0002342F8043B074B9A4207
:101D1400F9D3FEF70DFDFFF733FE7047607C010831
:101D2400000000201800002018000020B412002039
:101D3400FEE7CAF50100012001100100FFFE0100C9
:101D440003800540052009101118210EC10401006B
:101D540001000000C9CC010000807FFC0420024087
:101D64003FF8224824283FE82448244827C8244828
:101D7400240820282010B5E70100010001003FF8E5
:101D8400210821083FF82108210821083FF82108EB
:101D94000102010200FE0000D7D300003FF0002042
:101DA40000400080010001000104FFFE0100010069
:101DB40001000100010005000200BFC60608788882
:101DC40008480848FE0818881C482A48280E4878FD
:101DD4008B8808080808080808080808BCBC1020F4
:101DE40010201020FDFE1020142019FC3108D0888A
:101DF4001090106010601090110E56042000D3D083
:101E0400010001007FFE020004000FF018102810EA
:101E14004FF0881008100FF0081008900870082080
:101E2400CFDE0000FBF8920893F8A208A20893F80A
:101E34008A808A48AA50922082208210828E83044B
:101E44008200B9AB0000044006400440082008109A
:101E54001018220E430402000420081011F83F1841
:101E640010100000CBBE00003FFC000400047FE41F
:101E7400000400043FC4204420443FC42044200400
:101E8400001400080000D7A8010001003FF8020078
:101E94000200FFFE040008200FF000200040028032
:101EA4000100008000400000D2B50440044004401A
:101EB40004444446244C244814501C5014600440E8
:101EC40004400444FFFE00000000BFAA00007FFE9F
:101ED4000420042004200420FFFE04200420042005
:101EE400082008201020202040200000B7A2020073
:101EF4002240223022107FFE2400040007E00C2040
:101F04000A200A20114020804160861C1808B0E590
:101F1400101C11E011001100FD0011FC398435483A
:101F240055485230921012301448108E110400009B
:101F3400B9A400003FFC0100010001000100010000
:101F4400010001000100010001000100FFFE00008A
:101F54000000BFD8100010201010FDFE1104105016
:101F6400148C19043000D1FC1020102010201020F3
:101F740053FE2000C9E8400021F031102110011067
:101F84000110E20E25F821082108209020902860F5
:101F94003090230E0C04B1B808000FF00820142070
:101FA4002240418002400C30301EDFF411101FF03B
:101FB400111011101FF01010BCBC102010201020A4
:101FC400FDFE1020142019FC3108D08810901060F8
:101FD40010601090110E56042000CAF50100012073
:101FE40001100100FFFE01000380054005200910D7
:101FF4001118210EC104010001000000D6A7010040
:10200400010001007FFE010001001FF808100420F8
:1020140004200240018002400C30700E0004B3D64C
:102024001040104013FCFC40104017FE1410181010
:1020340037FED010111010D01090101050502020E6
:10204400C2DB4040204030A0209001080206E50495
:102054002110213821C0210025002904310420FC4D
:102064000000CCB3000011FC100010001000FC00B4
:1020740013FE1040106010801C883104C27E07C615
:1020840002040000B3C720202028202427FEFC20BF
:10209400242427A624A424A83CA8E4904792092A2F
:1020A400084A11840000CDF500087FFC01000100FE
:1020B4000100010001087FFC010001000100010092
:1020C40001000104FFFE0000C1D502101210FA1035
:1020D40022142FFE2210FA10273826B82A543A5414
:1020E400E2924210021002100210B1F3001020100C
:1020F40011F40012FC100BFE4810285029501170E6
:10210400295025484548816A0386000200000000E2
:1021140000000000000000000000000000000000BB
:1021240000000000000000000000000000000000AB
:10213400000000000000000000000000000000009B
:10214400000000000000000000000000000000008B
:10215400000000000000000000000000000000007B
:10216400000000000000000000000000000000006B
:10217400000000000000000000000000000000005B
:10218400000000000000000000000000000000004B
:10219400000000000000000000000000000000003B
:1021A400000000000000000000000000000000002B
:1021B400000000000000000000000000000000001B
:1021C400000000000000000000000000000000000B
:1021D40000000000000000000000000000000000FB
:1021E40000000000000000000000000000000000EB
:1021F40000000000000000000000000000000000DB
:1022040000000000000000000000000000000000CA
:1022140000000000000000000000000000000000BA
:1022240000000000000000000000000000000000AA
:10223400000000000000000000000000000000009A
:10224400000000000000000000000000000000008A
:10225400000000000000000000000000000000007A
:10226400000000000000000000000000000000006A
:10227400000000000000000000000000000000005A
:10228400000000000000000000000000000000004A
:10229400000000000000000000000000000000003A
:1022A400000000000000000000000000000000002A
:1022B400000000000000000000000000000000001A
:1022C400000000000000000000000000000000000A
:1022D40000000000000000000000000000000000FA
:1022E40000000000000000000000000000000000EA
:1022F40000000000000000000000000000000000DA
:1023040000000000000000000000000000000000C9
:1023140000000000000000000000000000000010A9
:102324001010101010001010000000000000002415
:10233400242400000000000000000000000000242D
:10234400247E2424247E24240000000000000010A5
:102354007C90907C12127C100000000000000000B1
:1023640062640810204C8C00000000000000000093
:10237400182420508A844A30000000000000001015
:102384001020000000000000000000000000081001
:102394002020202020202010080000000000201011
:1023A40008080808080808102000000000000000C1
:1023B40000105438385410000000000000000000E1
:1023C4000010107C1010000000000000000000004D
:1023D40000000000000010102000000000000000B9
:1023E4000000007C0000000000000000000000006D
:1023F40000000000000000100000000000000000C9
:102404000002040810204000000000000000003812
:1024140044444C546444443800000000000000105C
:1024240030101010101010380000000000000038A8
:10243400440404081020407C000000000000007CDC
:1024440004081038040404780000000000000008A8
:10245400182848487C080808000000000000007C98
:102464004040407804040478000000000000003C70
:102474004040407844444438000000000000007CA0
:102484000404081020202020000000000000003870
:1024940044444438444444380000000000000038F8
:1024A4004444443C040404380000000000000000DC
:1024B40000000010000010000000000000000000F8
:1024C40000000000100010102000000000000000B8
:1024D40000040810201008040000000000000000A0
:1024E4000000007C007C00000000000000000000F0
:1024F40000201008040810200000000000003844E8
:102504004404081010001010000000000000000037
:102514000038445C545C403C000000000000182477
:102524004242427E424242420000000000007C429D
:1025340042427C424242427C0000000000003C4295
:10254400404040404040423C0000000000007C42CB
:10255400424242424242427C0000000000007E406F
:10256400404078404040407E0000000000007E4033
:1025740040407840404040400000000000003C42A1
:1025840040405E424242423C0000000000004242A1
:1025940042427E42424242420000000000003810A3
:1025A40010101010101010380000000000001C085B
:1025B40008080808080848300000000000004244E9
:1025C4004850606050484442000000000000404011
:1025D400404040404040407E0000000000008282B5
:1025E400C6C6AAAA9292828200000000000042623B
:1025F4006252524A4A4646420000000000003C42F1
:10260400424242424242423C0000000000007C42FE
:102614004242427C404040400000000000003C42F6
:102624004242424242424A3C0E00000000007C42C8
:102634004242427C504844420000000000003C42B8
:1026440040403C020202423C0000000000007C10BA
:102654001010101010101010000000000000424272
:10266400424242424242423C0000000000004444D4
:102674004444282828101010000000000000828222
:10268400828254545428282800000000000042424A
:102694002418181824244242000000000000444476
:1026A40044442828101010100000000000007E028E
:1026B400020408102040407E000000000000382082
:1026C40020202020202020380000000000000000EE
:1026D40000004020100804020000000000001C0458
:1026E400040404040404041C0000000000000000AE
:1026F400102844000000000000000000000000005A
:102704000000000000000000FF00000000000010B6
:10271400100800000000000000000000000000009D
:102724000078043C4444443A000000000000404067
:10273400405C62424242625C000000000000000013
:10274400003C42404040423C0000000000000202C5
:10275400023A46424242463A0000000000000000AD
:10276400003C42427E40423C0000000000000E104B
:1027740010103C10101010100000000000000000A9
:10278400003E424242423E02023C00000000404001
:10279400405C6242424242420000000000000008E5
:1027A40000080808080808080000000000000004E9
:1027B40000040404040404044438000000004040FD
:1027C4004042444850684442000000000000101099
:1027D4001010101010101010000000000000000075
:1027E40000EC92929292929200000000000000008D
:1027F400007C4242424242420000000000000000CD
:10280400003C42424242423C000000000000000002
:10281400005C62424242625C4040000000000000F2
:10282400003A46424242463A0202000000000000DA
:10283400005C624040404040000000000000000096
:10284400003C42403C02423C0000000000000020EA
:10285400207820202020221C00000000000000001E
:10286400004242424242423E00000000000000009A
:1028740000424242424224180000000000000000CE
:10288400008282829292AA440000000000000000AC
:1028940000424224182442420000000000000000CC
:1028A4000042424242423E02023C0000000000005C
:1028B400007E02041820407E000000000000081082
:1028C40010102040201010100800000000101010FC
:1028D4001010101010101010101010000000201014
:1028E4001010080408101010200000000000000060
:1028F40000002254880000000000000000000000D6
:1029040000000000000000000000000000000100C2
:1029140002000100030001000200010004000100A4
:102924000200010003000100020001000500010093
:102934000200010003000100020001000400010084
:102944000200010003000100020001000600010072
:102954000200010003000100020001000400010064
:102964000200010003000100020001000500010053
:102974000200010003000100020001000400010044
:102984000200010003000100020001000700010031
:102994000200010003000100020001000400010024
:1029A4000200010003000100020001000500010013
:1029B4000200010003000100020001000400010004
:1029C40002000100030001000200010006000100F2
:1029D40002000100030001000200010004000100E4
:1029E40002000100030001000200010005000100D3
:1029F40002000100030001000200010004000100C4
:102A04000200010003000100020001003F007543C1
:102A14002F4F532D49492049646C650075432F4F4E
:102A2400532D49492053746174003132330A001024
:102A34001000F000B4011B0080008000A000A00082
:102A4400C000E000C000C000A00060006000800082
:102A5400E000E000E000C000E000E000E001000170
:102A640000092000E000E000E000E000E00940117F
:102A7400812203118101000100012001400960113C
:102A8400C111E211E211C1098001600160018001FC
:102A94008009A009A001600180018001A0018009D2
:102AA400A009C109A1014001800180018009C00978
:102AB40080016009A109C101400120018001A00930
:102AC400A001A0018001A009E13306436812231A82
:102AD400024B286BEC5B8A5BAA5BCA32C5330533B5
:102AE400652B022AE222810160014001400160015C
:102AF4008001A001800180018001600160098001E2
:102B04008001800180018001800180018001A00199
:102B140080016001600160016001600120092009F9
:102B240000114109010900092009200920090009AF
:102B340021194211010020002000000000000000C3
:102B44000000000000000000000000000000000081
:102B54000000000000000000000000000000000071
:102B64000000000000000000000000000000000061
:102B74000000000000000000000000000000000051
:102B84000000000000000000000000000000000041
:102B9400200040006000600060006008A032245BF8
:102BA400A753A443614C033B8133812B6123001A57
:102BB400C01AA01A801A401A001A001A212261129F
:102BC4000009C012001A2009C011E011C011C0117F
:102BD400C01A211A0111E011E0120011E0120111D2
:102BE400E011A011A0118011A109800980098009B8
:102BF4008009600960096109610961096009600966
:102C0400400960098009A011A01180096001200118
:102C14000001200120012000800080008000A0002D
:102C2400C000C000E000A0008000A000C000C00000
:102C3400C000C000E000E000E000E001200100016D
:102C440000010000E000E001000100012009401142
:102C5400C211A1010001000120098111A111C211B9
:102C6400C109A10180016001400160018001800966
:102C7400A009C101800160018001A00180018009D7
:102C8400C109A00140016009A0018009C009C1096E
:102C94008009800160018001200140018009C10197
:102CA40080018001C001A01A234B681A0311E22A93
:102CB40085538A6C0C5B6A6C0C42E74307434622DB
:102CC400E322C212402AE21A41010000E00120017D
:102CD40040016001600180016001800160014001E8
:102CE4006001600180018001800160016001400198
:102CF400600160016009400940116100C000A00842
:102D0400E0112100800080008000800080008000AD
:102D1400600060006000200000000000000000006F
:102D2400000000000000000000000000000000009F
:102D3400000000000000000000000000000000008F
:102D4400000000000000000000000000000000007F
:102D5400000000000000000000000000000000006F
:102D6400000000000000000000000000000000005F
:102D7400200020002000400040006000600060004F
:102D84008019613AC443644BE43B6133613361337A
:102D9400422B2222C11A801A401A4012001A201A09
:102DA400211A202241226111E011E009C009C01159
:102DB400C01A211A2111E011E011E011E0120012F1
:102DC4000111C011A011A011A1098009800980116D
:102DD4008009800960096109610961096009600964
:102DE400600960096009A011A01180094001000177
:102DF4000001200120092000600060008000A00084
:102E0400A000C000C000C000C000C000C000C000DE
:102E1400C000C000E000E009410941012000E000D9
:102E2400E00100010000E0010001200120098011FF
:102E3400C1012001400140098111C2098101400101
:102E4400600160018009A00180016009A001A0095E
:102E5400C101800180018009A00180014001800935
:102E6400C10160018009C111E209C1018001800929
:102E7400A00160018009A001600180098009C101ED
:102E8400400180018011C132C63AC609811A033259
:102E9400A653AA63EC5B8A5B8A430753A932E522F3
:102EA400A3122112402B032AC311A0006000A0002A
:102EB400C0010101210140016101610961010000BA
:102EC400E001200160016001810961012000A0008E
:102ED400C000C000E0010009411962008000400008
:102EE400400060004000400040002000200020001E
:102EF40020000000000000000000000000000000AE
:102F040000000000000000000000000000000000BD
:102F140000000000000000000000000000000000AD
:102F2400000000000000000000000000000000009D
:102F3400000000000000000000000000000000008D
:102F4400000000000000000000000000000000007D
:102F540000002000200020004000400040006000ED
:102F6400600040004008C01981646843A33B4133BA
:102F7400613B82334222C01AA012401A601A201AFE
:102F8400201A00226122811A21120109E009E011AC
:102F9400E01A211A21120011E011E011E009E01AEF
:102FA4002111E111C011A011A011A011A011A011B3
:102FB400801180098009600960096109600980093C
:102FC400600160096009A011A0118009600120015D
:102FD4002009400940094000600080008000A000F2
:102FE400A000C000E000E000C000C000C000C000BD
:102FF400C000E000E009201182010000E0010001AE
:1030040000010000E000E00120014001600980119E
:10301400A111A1098111A111C2096001000140019E
:1030240060018001A0018001A009C001A001A001EC
:103034006001400160018009A00180018009C0098C
:10304400A009C011E1098001600180018009A0018B
:10305400A001A009A00180018009C111C10140099A
:10306400A109A109A111C143072223098122032A2D
:10307400653AE75BCB4B085B8A53AA53A932C53246
:10308400A41A222AC322821A61228301000080002A
:103094004000400060008000A100C008E000600023
:1030A40060008000A000E001001161114200800076
:1030B400600060006000400040006000400040008C
:1030C400200040004000200020000000000000001C
:1030D40000000000000000000000000000000000EC
:1030E40000000000000000000000000000000000DC
:1030F40000000000000000000000000000000000CC
:1031040000000000000000000000000000000000BB
:1031140000000000000000000000000000000000AB
:10312400000000000000000000000000000000009B
:10313400000000000000200020002000200000000B
:1031440020002000400040006008E03AC44B653B8A
:10315400423B6133422B0122E01AA01A6012201A6A
:103164002111E009C012201A401A40120011E01285
:10317400001A2122411A0011E011E011E009E01ABD
:10318400211A2111C011C011A011A111A011A01167
:10319400A009800960096009600960096009800963
:1031A400600960098011A011C011A00960094009DB
:1031B40040094009600960008000800080008000B0
:1031C400A000C000C000C000C000E000E000C000DB
:1031D400C000C009210921010000C000E000E00195
:1031E40000010000E0010001200160098011A1112B
:1031F400E209810140012001400140012001400118
:1032040080018001800180018001A009C001A0012A
:103214004001800180018009A111E111E111C1097E
:10322400C109C0016001600180018001A009E001C1
:10323400800180018001A001801A220160016009DF
:10324400A12243098009A13B061A0109C01A2222BE
:10325400632A843AE643074B684B8843473B063A64
:10326400E5432632E5226312011A22226319C209B8
:1032740000008000200020002000400040004000AA
:10328400400040006000600080006000600040007A
:10329400400040004000400020002000400020008A
:1032A400200020002000200020002000200020001A
:1032B400000000000000000000000000000000000A
:1032C40000000000000000000000000000000000FA
:1032D40000000000000000000000000000000000EA
:1032E40000000000000000000000000000000000DA
:1032F40000000000000000000000000000000000CA
:1033040000000000000000000000000000000000B9
:103314000000000000000000000000002000200069
:103324002000200040004000600060006000A01900
:10333400C132C44BA54383332122C01A801A6012C0
:1033440020122109E009A009C01A201A2012001233
:10335400001A2022411A0011E009C0120009E012EB
:10336400211A4111E011C011C011A011A011A0092E
:10337400A0098009600960014009600960096009C9
:10338400600960098011A011A01180096009600919
:103394004009400940096000600060008000A0000E
:1033A400A000C000C000C000C000E000E000C000F9
:1033B400E0090000E000E000E000E0010001200975
:1033C40041012000E001200140098011C10981016F
:1033D40020012001200120014009800160016001D9
:1033E40060018001800180018001A009C0016001A9
:1033F4006009A012021A43120209800180016001CF
:103404008011E101A0018001A001A009C012010105
:10341400600180018009A009C112010140098012E4
:1034240002224311E122432283120009E011C02A3F
:10343400A4432732A55C0A640A3AE543472AA42236
:10344400633B464BA832A511C12264226211E019E4
:10345400E0118100A0004000400040004000400016
:1034640040008000600060006000400040004000B8
:103474002000200020002000200020002000200048
:103484002000200020002000200040002000200018
:1034940020002000000000000000000000000000E8
:1034A4000000000000000000000000000000000018
:1034B4000000000000000000000000000000000008
:1034C40000000000000000000000000000000000F8
:1034D40000000000000000000000000000000000E8
:1034E40000000000000000000000000000000000D8
:1034F40000000000000000000000000000002000A8
:103504002000400040004000600060006000600057
:103514006000A009012A4164674BA42AA112201269
:1035240020120009E001A001A011E022411A401A72
:10353400001A2022411A00120009C0120009E012E8
:10354400002262120011E011C011A0098009800953
:10355400A011A009800960014009600960096001A7
:10356400400960096011801180096009400940091F
:103574004009400120012000600060008000A0009C
:10358400C000C000C000C000C000E000E000E000D7
:10359400E000E000E000C0010001000100010009BA
:1035A4004009400120094009811181012000E00106
:1035B40000012001400160016001600140014001FF
:1035C40060018001600160018009A011E109A0117E
:1035D400C122431A02016001600160018001800977
:1035E400A0122101A0018001A001C009E009E101AC
:1035F400600180098009C1122201A0016012021237
:103604000222A41A221A4309C1018009C122433AA1
:10361400E7538A42E8746D5BCA3AE74B484B892208
:10362400A41A4232E4432622231A0209800980099B
:10363400C011E011C109810980098009801A221989
:10364400C2008000600040002000400040004000B4
:103654002000200020002000200020004000200046
:103664004000400020002000400040004000400096
:1036740040002000200020000000000000000000A6
:103684000000000000000000000000000000000036
:103694000000000000000000000000000000000026
:1036A4000000000000000000000000000000000016
:1036B4000000000000000000000000000000000006
:1036C4000000000000000000200020002000000096
:1036D4000000200020002000200020002000200006
:1036E40040004000400060006000800080008000D6
:1036F400A000A000A0008000A02A43538743642AAE
:10370400A11220122009C009C011E11A011A001ADD
:1037140020224122611A001A001200120012001223
:103724000022821A20120011C009A009A009A011C8
:10373400A011C00980096009600960096009600975
:10374400600960098009800960094001200120099D
:10375400200120012001200080008000A000C00082
:10376400C000C000E000E000E00100092000E0002B
:10377400C000C000E000E0010001000100012001E0
:10378400400960118109600961010000E001000144
:103794000001200140016009A001400160016001B5
:1037A400600180018009A011C111C111E1098001EA
:1037B4008009A00180016001600160018009C009E5
:1037C400E109E0018001A001A001C00A010180011A
:1037D40060018009A01A22228311E1120112010959
:1037E400E001A001A012011A6309E111E232C63A14
:1037F400C75BCB42E8742D63CB5BAA5BCB640B3312
:103804000522631A221A2222432263226322431AC4
:103814002209A001A001800980018001A0122111C8
:10382400E019E2196200600020002000200040003E
:103834002000200020002000200020002000200084
:103844002000400040004000400040004000400094
:1038540020002000200020000000000000000000E4
:103864000000000000000000000000000000000054
:103874000000000000000000000000000000000044
:103884000000000000000000000000000000000034
:103894000000000000000000000000000000000024
:1038A40000000000000020006000600040004000B4
:1038B40040006000600040002000200040006000E4
:1038C40080008000800080008000A000C000C00054
:1038D400C000C000A00080008000A000C011812AA8
:1038E4004332A33B0332C222401A2011E011E012FA
:1038F40000224122621A201A2012001220122012E1
:10390400001A611A41120011E009A0098009A011EE
:10391400A011A009A00980096009600940014009BB
:10392400600960098009600940012001200120012B
:103934002001200120012000A000A000C000C00040
:10394400C000C000E000E001000920010000E00028
:10395400C000E000C000E0010000E000E001401110
:10396400A111C20120010001000100012001000198
:1039740000012001400160016001600160018009D3
:10398400A011C11A0211E101600160014001600946
:10399400800180018009C001600180018009C0129A
:1039A4000101A001A001A001A001C00A0101800140
:1039B4006009A01A222AA4228309E001A001A0011F
:1039C400C001A00A012AC41A4222841A233AA64B2F
:1039D4004963EB5BAA63CB5B694B4843075368536A
:1039E400A832E5330632E5120209C01A422A841AC3
:1039F4002309C101C001C009C009A009E001C00A2E
:103A0400002281538700A000200020002000200015
:103A140020002000400040004000400040004000E2
:103A24004000400040004000400040004000400092
:103A34002000200020002000000000000000000002
:103A44000000000000000000000000000000000072
:103A54000000000000000000000000000000000062
:103A64000000000000000000000000000000000052
:103A74000000000000000000000000000000000042
:103A84000000200040006000800080008000600092
:103A94008000A00080008000600060008000800042
:103AA400A000A000A000A000A000C000E000E00072
:103AB400E000E000C000C000C000C000C000C000C2
:103AC400A000A00921224143443B032AC211E01172
:103AD400C011C01A0022411A2012201220122012F2
:103AE400201A611A811200120011C009A00980096C
:103AF400A009A009A00980096009600140014009EA
:103B04006009801180096009200120012001200939
:103B14002009400940094000A000C000C000C000C6
:103B2400C000E000E001000921010000E000E00025
:103B3400E000C000E0010001000100014009811122
:103B440081010000E000E0012001200120012001AA
:103B5400200120014009800140098011C11A021A84
:103B64000209800160098001400140018001800157
:103B7400A0018001A01201016001A009C009C012C6
:103B84000101A001A009C001A009C0122109A012CD
:103B9400011A421201016009C009C0018001C00973
:103BA400E009C01A8322831A2233062A6443276455
:103BB4000B538942C64B4853685BCA5BCA4B682A9D
:103BC400A42AA322A422A41A62228322C309C00124
:103BD4008001A001C009E0120209A009E01A421202
:103BE400212AA311C1092108A1006000400040005E
:103BF4002000200040004000200020002000200081
:103C04002000200020004000200040004000200050
:103C14002000200020002000000000000000000020
:103C24000000000000000000000000000000000090
:103C34000000000000000000000000000000000080
:103C44000000000000000000000000000000000070
:103C54000000000000000000000000002000200020
:103C640040006000600080008000800080008000D0
:103C74008000A000A000A000A000A000A000A00060
:103C84008000A000C000C000C000E000E000E00030
:103C9400E000E000E00900090000E000E000C000EE
:103CA400C000C000C000A000C019E23B0432C21A28
:103CB4002109A011C011E01A201A201A401A401A32
:103CC400401A6022811A20120011E009A00980091B
:103CD400A009A009A0098009600960014001400908
:103CE4006009801180096009200120012009200950
:103CF4002009400940096000A000C000C000E000A5
:103D0400C000C000E00100010000E000E000E001AC
:103D14000000E000E000E0010011810961094001B8
:103D24000000E001000120012001200120014001E8
:103D3400200120016011A111E111E211A109810109
:103D44002001400160098001600160018001A00937
:103D5400C001A001C001C0018001A001A009E00AC6
:103D64000001A009E01A421A631A22120112011179
:103D7400E1018001C001A009C0124101C009E00AAB
:103D84000112421A8312012AA43305432743473BF5
:103D9400072A84434753A84B675BC953C932C52AD2
:103DA400A32AC42AC4228322821A610A0001C00100
:103DB400C00A0112210A0012011A4212411A6212A7
:103DC4002109E01A422A833AE653290040002000E0
:103DD40020002000200020002000200020002000DF
:103DE400200020002000200040004000200040006F
:103DF40040002000200020002000200020000000BF
:103E040000000000000000000000000000000000AE
:103E1400000000000000000000000000000000009E
:103E2400000000000000000000000000000000008E
:103E3400000000002000200020002000400060005E
:103E440060008000A000A000800080008000A0002E
:103E5400A000A000A000C000C000A000A000A0001E
:103E6400A000C000C000C000C008E000C000C00046
:103E7400C000C000E00900090000E000E0090008FB
:103E8400E008E00900090000C000C0092011C122B7
:103E94004222621A2111C011E01A4022611A601AEA
:103EA400601A6022A11A611200120009C009800977
:103EB40080098009800980096001400140094009A6
:103EC40060118009600940012001200120092009B6
:103ED4002001200940094000C000E000E000E000AB
:103EE400E000E0012100E000E000E000E00100016A
:103EF4000000E000E00120118109400100010001FF
:103F04002001000100012001200140014001600165
:103F140060016011C11A0209800120012001200101
:103F2400400160016009A001600160018001A001FD
:103F3400A001C009E001A0018009C009C009E01284
:103F44002112412AA41A2209C10180018009E00931
:103F5400C001A001C001C001C01A820A0109E00920
:103F6400C01A6212221A6232E53B464B671A222AB1
:103F7400A432C54367436743A7436732A42AA42AEC
:103F8400C433053305226211E009E00A000A001275
:103F94004122A31A421A6222E312820A211241091F
:103FA400E009E009E012012A833AA600400020005B
:103FB40020002000200020002000200020004000DD
:103FC400400040002000200020002000200040008D
:103FD400400040004000400040004000200020001D
:103FE40000000000000000000000000000000000CD
:103FF40000000000000000000000000000000000BD
:10400400000000000000000020002000200020002C
:1040140020002000400060006000600080008000FC
:104024008000A000A000A000A000A000A000A000AC
:10403400A000A000A000C000C000C000C000C000DC
:10404400C000C000E000C000C008E008E000C000FC
:10405400C000E000E009000901090000E0090009CE
:104064002009200921090109210900092109200148
:104074002011C12A4222212A622A8222611A601A4C
:10408400401A602AA122811A201A2011E009A009ED
:1040940080098009800980096001400140094011BC
:1040A400801180096001200100010001200120012C
:1040B4002001200120094000E000E000E000E001D0
:1040C400000941010100E000C000E0010000E0013E
:1040D4000000E009411181010000E000E00100015D
:1040E40020014001600120012001400140098019A4
:1040F400E211C209A1014001200100012001400197
:1041040060096011C101600140016001800180010A
:104114008001C009C0018009E11A421A21228322C8
:10412400A3122101600160018001A001A009E00A3D
:104134000101C001C00A0112211A6201C00A011260
:1041440021124212211A822AC43B461A42226333A4
:10415400053B462AC4330543873B462AC433052B13
:10416400041A82124112211A4122A322A33B264B94
:10417400882AA432E532E512421A83122209E1099F
:10418400C009C0122109E02A84090000600040002F
:10419400200040002000400040004000200040007B
:1041A400400040002000200020002000400040008B
:1041B40040002000400020002000400020000000BB
:1041C40000000000000000000000000000000000EB
:1041D40000000000000000000000000000000000DB
:1041E400000000002000200040006000600040004B
:1041F4004000600080008000800080008000A000FB
:10420400A0008000A000A000A000A000800080000A
:10421400A000A000A000C000C000C000A000C0001A
:10422400C000C000C000C000E008E008E000E000FA
:10423400E000E00900090000E0090009000921117B
:10424400410921092111411161094109210941094A
:1042540041116011A119E119E119E019E01A402294
:10426400601A402AC122A11A401220120009A00992
:104274008009800980098009800960014009601172
:1042840080098009400100010001000100012001B2
:104294002001200120012000C000E000C000E0094E
:1042A40021010000C000E000E000E000E00100099E
:1042B4004009610941010000E000E0010001000142
:1042C400200140014001200120096011A111C10910
:1042D40060012001200140014001200140016001F2
:1042E400600180016001400160018001A001800142
:1042F4006009C0122112011202120209C0018001D8
:104304008009C00180018001A001C001C009E01240
:104314004101E00A0009C01A6209E009E012211211
:10432400421A83124122A33B462AC422632AA43B95
:10433400263B0532C4330433252AC322A32AE42AA4
:10434400E433053B4643674BC84BA85C2A6C8C4B53
:104354006822233AE63B061A2222A42A8409C112BF
:1043640002120109E101A01A6311E111A129E4215A
:1043740043002000200020004000200040004000B6
:1043840040002000200020002000200040004000C9
:1043940040004000400020002000200020000000D9
:1043A4000000000000000000000000000000000009
:1043B4000000000000000000000020002000200099
:1043C4002000200040006000600080008000600049
:1043D400800080008000800080008000A000A00099
:1043E400A0008000A000A000A000A000A000800009
:1043F400A000C000A000A000A000A000C008E00031
:10440400C000A000C000C000C000E000E000E00068
:10441400E0010000E000E000E00100092111611169
:1044240062116109211141118211410921092009F7
:10443400411161118119C119C119E122211A211AED
:10444400202A8132E22AA11A601A401A4009C009BE
:104454008009600960098009800960096009801188
:104464008009600120010000E000E001000100017A
:104474002001200940094000E000E000E0010001C3
:104484000000E000E000E000C000E0010009400995
:1044940041010000E000E000E000E0010001000153
:1044A4000001200140016011C111C101400140011E
:1044B40020012001400160016001400160016001B0
:1044C4008001A00160016001800180018009C11A9E
:1044D4002222631201018001600160018001A001B8
:1044E4008009E009C009C009C001C009C009C0129F
:1044F4004101C00A001A411A4209E01A621242122A
:10450400421A621A622AC4332533043B4643874362
:1045140087434643663B453B8533243B85332433FD
:10452400053B26436743674BA843464B8753C84321
:10453400674B673B053AE52AA432C54B8832A4325F
:10454400A4120209E101C001C001C01200434608DF
:10455400A100400020004000400040004000400016
:1045640040004000400040002000200020002000C7
:104574004000400040004000400020002000200097
:104584000000000000000000000000000000000027
:104594000000000000000000200040004000400037
:1045A4004000600060008000800080008000800087
:1045B400800080008000800080008000A000A000B7
:1045C4008000800080008000A000A000A000A00067
:1045D400A000C000A000A000A000A000C000E00057
:1045E400C000C000C000C000C000E0090009000015
:1045F400E000E000E000C000E009000921116219B8
:10460400821182114111621182116109410920094B
:104614002109411161118119C119E11A01222111E4
:10462400C01A202A82228122A11A801A6111E0096B
:104634008009800160098009A00980098009A0110E
:10464400800960012000E000E00100010001200178
:104654004009400960096100C000C000E001000099
:10466400E000E000E000E000E000E00940010000BC
:10467400E000E00100010000E000E00100010001B1
:1046840000096011C11A0311810100012001000118
:10469400200140012001600140012001400160012E
:1046A4008001800180018009A011E12A841A230974
:1046B4008001200160018001800180018001A00946
:1046C400E0018009C01201018001C001C009E012AB
:1046D4000009E009E0226209E012211A411A62226B
:1046E400C333243B6633042AC322A212410A000ABC
:1046F4002001E00200020001E00A400A4001E00A51
:10470400000A400A000A200A201220122012201255
:10471400412AE322A33B4532E543673AE61A0232D3
:10472400A53B472283120109E009C011E01A2111B7
:10473400C1112200800040004000400040004000C1
:104744002000400040004000200020002000200005
:1047540020004000400040004000400020002000B5
:104764000000000000000000000000000000000045
:104774000000000020002000400060006000600095
:104784006000600080008000800080008000800065
:10479400800080008000800080008000A0008000F5
:1047A4008000800080008000A000A000A000A00085
:1047B400A000C000A0008000A000A000C000E00095
:1047C400E000C000C000E000E000E00900090000D3
:1047D400E000C000C000E0090009000921198219A5
:1047E400A319821162116111821161114109200121
:1047F4002001200941118111A219C119C111C10956
:1048040080096009A01A001A601A80228112000926
:1048140080096009600980098009A011A011A01114
:104824008009400100010001000120012009400924
:104834006009601180118000C000E000E000E00029
:10484400E000E000E000E009200920010000E000B1
:10485400E0010000E000E000E000E0010009401198
:104864008111A10961010000E00120012001000182
:10487400200140012001400120014001400140018C
:104884008011E111E211E111C111A10160014001A6
:104894004001600160018001A001A001A009C001E4
:1048A400A001C0120101C001C009E001C00A001248
:1048B40021124122822AE41A421A6222821A4212E4
:1048C4002109E009E009E00A000A001A820A210A23
:1048D400200A40126112810A601AC2126012811207
:1048E400C112C112801B02230222E2230323022BE2
:1048F40003334433243344332533252AC42AA422DE
:10490400633B2632E51A6212001A4111E011E022DB
:10491400634B4808C1004000400040004000400094
:1049240040004000400040002000200020004000E3
:1049340040004000400040002000200020002000F3
:104944000000000000000000000000000000000063
:104954002000200040006000800080008000800073
:10496400800080008000800080008000A000A00003
:104974008000800080008000800080008000800033
:10498400800080008000A000A000A000A000A00083
:10499400A000A000A000A000A0008000C0090000AA
:1049A400E000C000C000E008E008E00900090000E1
:1049B400E000C000C0010009210920092119821961
:1049C400A319A211821162118211621141092001FD
:1049D40020012009411181118211A211A119C111D3
:1049E400A109600960098012001A6022A122411104
:1049F400C0098009600960096009A011C019C011CB
:104A0400A0096001200120094009400960096009EA
:104A14008009800980096000E000E000E000E00017
:104A2400E000E000E00921010000E000E000E00116
:104A340000010000E0010001000100094019C20961
:104A440060010000E000E000E0010001000120013D
:104A54002001400120016001200140016009A022E1
:104A6400231A0211A001400120014001400160010C
:104A7400800180018001A009C101A001A001A00161
:104A8400A009E009E009C009C009C01A623304336F
:104A9400241A62122109A001A001C001C009E00981
:104AA400E009E0124112210A400A401A810A401228
:104AB400611A811AA11AA123022B221AC123011AF5
:104AC400E11B21232223421B012302232223222B25
:104AD400432302230322E222E22B0322A22AE443F9
:104AE40067330532E522831A4212001A2111E012BB
:104AF400012A8400A0004000400040004000400023
:104B040040004000400040004000400040004000A1
:104B140040004000400040004000200020002000F1
:104B24002000000000000000000000000000200041
:104B34002000400060008000800080008000800031
:104B44008000800080008000800080008000A00041
:104B5400A000800080008000800080008000800031
:104B64008000A0008000A000A000A000C000A00061
:104B740080008000A000A000A000A000A000E00031
:104B8400E000C000C000E009000900090000E000E6
:104B9400E000C000C000E01141092109211182197F
:104BA400A219821182116211621141094109200185
:104BB400200940096111611182118211A219A219FF
:104BC400E211C10140098009A01A202AA12A811AF0
:104BD4002119E111C111C111A0118011A019A11154
:104BE400A009600940094009400940096009800999
:104BF40060096009600960010000E000E000E00075
:104C0400E00921094200E000C000E000E000E0010A
:104C14000001000100010001201181118101000047
:104C2400E000E000E00100010001000100012001BA
:104C340000012001400140014009A11A0219E201CA
:104C44002001200120014001400140016009A00130
:104C54008001A001A001C001C001A001A001A00128
:104C6400A0124209E012211A8222C41A6201A00190
:104C74008001A009C001A009E001C009E00A0012F6
:104C8400411A8112400A200A6012801AC112A0122D
:104C9400A01AC122E123012B4212801AC023021A56
:104CA400C01AC02B631B01230123012B422322239F
:104CB400022301230223021AE12B222B0233233382
:104CC4000333242AE322822282228122A212402256
:104CD400A212403B233282194200400040004000AF
:104CE40040006000400040004000400040004000A0
:104CF4004000400040004000400020002000200010
:104D040020000000000000000000200020004000FF
:104D140060008000800080008000800080008000AF
:104D2400800080008000800080008000800080007F
:104D3400A0008000800080008000A000A00080000F
:104D4400800080008000A000A000A000A0008000DF
:104D540080008000A000A000A000A000C000E0002F
:104D6400E000C000C000E00900090000E000E0002D
:104D7400C000E000E001000921092111411182195C
:104D840082198211821162116109410920092009E5
:104D940020094009401161118219A219A219C222E5
:104DA40003222319C219C111C01A0022602A8122C8
:104DB4004222232203220319E111A019A011A111F7
:104DC4008009400940094009400940094009600937
:104DD4006009600960096000E000E000E000E009AB
:104DE40021090100E000C000C000E000E000E00193
:104DF400200100010009411161094100E000E000C7
:104E0400E000E000E0010000E000E001000100013A
:104E1400000120096011C111C111A101400120014B
:104E2400200140014001400140014009A00160010E
:104E3400800180018009C001800180018012011A73
:104E44006322831A42120109C0018001A00180017A
:104E5400A009E109C001A009C009E00A20126112F9
:104E6400610A000A20124012801AC112800A8012BC
:104E7400C112C01B0123011AE01AC022E122E1225F
:104E8400E122E13B842301230123012B2223021A83
:104E9400C122E122E122C122E12B022B0133423360
:104EA400422AE12AE22AE3332422A11A811A611256
:104EB400601A811A403B233AA5006000400040007C
:104EC40040006000400040004000400040004000BE
:104ED40040004000400040004000400040002000EE
:104EE400200000000000000020004000600060007E
:104EF40080008000800080008000800080008000AE
:104F0400800080008000800080008000800080009D
:104F1400A00080008000800080008000A00080004D
:104F24008000A0008000A000A000A000A0008000DD
:104F340080008000A000A000C000A000C000E0002D
:104F4400C000C000C009000900090000C000C00082
:104F5400C000E000E0090009211141114111621172
:104F6400621182118211611161092009000900098D
:104F74004009400960118219A219C3118219A22A99
:104F8400243A852A4421E2222222612A812A812A82
:104F9400622A432A442A442223220221E219810953
:104FA40040012001200120012001200120012009CD
:104FB4004009600960096000E000E0092011410136
:104FC4000000E000C000C000C000E000E0010009F3
:104FD4004001201181094100E000C000E000E00030
:104FE400E001000120010000E000E00100014001B7
:104FF4000011A222440981010001000100012001E5
:10500400400160014001400140018009A1014001CB
:1050140060018001A001A0016009C12AC41A6309CA
:10502400A101A001A00180018009C001A0018009A3
:10503400E001C001A009E001C00A001A820A2002AE
:10504400000A200A401260128112810A6012A11A19
:10505400C112C11B0123222B423BC43BC43BA433DA
:10506400633B64334323022B022B222B2233233B47
:10507400843B843343334333432B222B222AE122C0
:10508400C02AE122A02AE2332333232B0322A21ACB
:10509400611A811A80332332C33A844AC811020048
:1050A400600060004000400060004000400040009C
:1050B400400040004000400040004000200020002C
:1050C40020002000200020004000600080008000BC
:1050D40080008000800080008000800080008000CC
:1050E40080008000800080006000600080008000FC
:1050F400A0008000800060008000800080008000AC
:105104008000A000A000A000A000A00080008000FB
:1051140080008000A000C000C000A000C000C0004B
:10512400E000C000C00900090000E000C000C000A9
:10513400E0010000E00900114111621162116109EE
:10514400410941116111410940092009000920095F
:10515400400940096111A219C319C311A219A22A55
:10516400243A863265220319E12A4132A232A2325C
:10517400832A6332652A652A6432642A2219A109C2
:1051840020010001000100010001000120012009AB
:105194004009400960096000E00941092100E0007C
:1051A400C000E000E000C000E000E00100012011C8
:1051B400811181010000C000E000E000E001000076
:1051C400E001200940010001000120012009601ACA
:1051D4000211A101200100010001000120012009A8
:1051E40060014001400140016011E20140014001C1
:1051F40060018009A011C12A841A430160014001A1
:105204006009C1018009A00180018011C109C101A7
:105214008001A009C009E012011A620A0001E00A33
:10522400400A20126012601A8112401AA12B033323
:105234004443A53B853B852B030A200A20124012D8
:105244006012A0128012A012A0128012801AA01A5A
:10525400A02B021A801A801AC022C02B222B2233C0
:10526400233B6433233B2433033B242AE32AC22213
:10527400A11A601A81124022804B863A6608A10066
:1052840040006000610041004000400040004000D8
:10529400400040004000400040004000200020004A
:1052A400200020004000600060008000800080003A
:1052B4008000800080008000800080008000A000CA
:1052C40080008000800080006000800080008000FA
:1052D40080008000800080008000800080008000CA
:1052E40080008000A000A000A0008000800060007A
:1052F40060008000A000A000A000A000C000E008A2
:10530400E000C000E00900090000C000C000C000C7
:10531400E000E000E009000921116211620941097D
:1053240020094109410940092009200920092009CF
:10533400610961116111A219C319A319A219A32A40
:1053440004326532452A24220222012A4132A23241
:10535400A22A8332842A642A442A2321E111800167
:105364000000E0010000E001000100012001200133
:10537400200940094009601162092100C000C000F1
:10538400C000C000C000E000E00100116019C211BB
:10539400A1092001000120094009400960096011A8
:1053A4008119C119E119C119E22202224232A4224F
:1053B4006211C111C11A0111C119C119E121E221FE
:1053C400E121E2220222022A6322421A42226222BA
:1053D4006232A33B2543451A0111A011C011C0112B
:1053E400C011C009A009A009A011E009C011C00999
:1053F400C009E009E01220122009E001E00A200AB5
:10540400400A201240124022C2332433443324225F
:10541400C21240124012401A81128012601281128C
:10542400801AC12B231AC11AE11AC01AE1230123DD
:1054340001336222E13342334233412B212B2133A6
:1054440043332333033B4443453B243B44438522BA
:10545400C222A11A81124022A13B4322023225100A
:10546400C1004000400040004000400040004000B7
:105474004000400040004000400040004000200048
:105484002000400060008000800080008000A000B8
:10549400A000800080008000800080008000A000C8
:1054A400A0008000800080008000800080008000D8
:1054B400800080008000800080008000A000A000A8
:1054C40080008000A000A000A00080008000600098
:1054D400800080008000A000A000A000C000E000C8
:1054E400E000C000E0090000E000C000C000E000EF
:1054F400E000E000E00100114111610941090001EF
:1055040000092009400941114109410920092009E4
:10551400411162118219C319C319A319A319A32A2A
:105524000432452A252A252A44220222212A6132CC
:10553400A12A822A8222221A0219E219C1096001CF
:105544000000E00100010001000100012001200928
:1055540040094009400940092100E000E000E00959
:105564004009400961118211A119C2222322022299
:105574000219E22202220222422A632A6322221A06
:105584000122221A221A0119E011C011E01A001A8C
:10559400001A001A2022412A822A8332C43AE54B97
:1055A4004642E43262328319E11A001A001A011ADF
:1055B400211A0122411A20226232C32AA32AA332C9
:1055C400C33B0432E332E33B443B4432E33304223F
:1055D400A21A611A612AC212001220122012201289
:1055E400400A201A614BC73B651A611240124012EF
:1055F400400A20126012801AA1128012601A8122BD
:10560400C22B021A8112601AC12B4223012B422B96
:105614006143E33BC33BC33B833B62336243C33BD2
:10562400823B633B443303330443652AE22AE21A90
:10563400601A6022C122E11AA022C053C4430408A4
:10564400E0004000600060006000600060006000F6
:105654004000400040004000400040004000200066
:1056640040006000800080008000A0008000800076
:10567400A000A000800080008000800080008000E6
:10568400A0008000800080008000800080008000F6
:10569400800080008000800080008000A000A000C6
:1056A40080008000A000A000A00080008000800096
:1056B4008000A000A000A000A000A000C000C000C6
:1056C400E000E000E000E000C000C000C000E00036
:1056D400E0090000E0010011410941092001000135
:1056E40000010009201161118111610920092009BB
:1056F40041118219A319C319C319A319A319A32208
:105704000432452A042A2432652A44220122002A2A
:10571400602A812A8222211A01220219E111A001A0
:105724002000E000E0010001000100012001200947
:10573400400960096009801181118119C12202198F
:10574400E219E219E319E219C219C211A111A11156
:10575400C111A109A0098019E122220140012001FF
:10576400400120012001400140016001600160010D
:105774006001600160018001600160098009A01A74
:1057840021226209A0016001800180018009C00911
:10579400A001A009A009A009A001A0018009A009F5
:1057A400C001C009C009C01A4122611A2122622A1B
:1057B400C233234365438543643B2333023B0343A2
:1057C40044434564292242120012411241124012FC
:1057D400600A6012A112A10A40126022E222E223AE
:1057E400030A40128022C1334243E543C44C064CB1
:1057F4000633832B2133623B634C054BE5438333F0
:10580400423B423B4343A54BC633232B0222A233E4
:10581400032AC122C122E12B422B013B833B625369
:10582400C542A40080006000600060006000600069
:105834006000600040004000400040004000400024
:105844006000800080008000800080008000800074
:105854008000A000A0008000800080008000800004
:105864008000800080008000800080008000800034
:10587400600060008000800080008000A000A00024
:10588400A00080008000A000A0008000A000A00074
:10589400A000A000A000A000A000A000C000C000C4
:1058A400E000E008E000E000C000C000E000E0002C
:1058B400E009000100010009200920090000E001BD
:1058C4000001000100094111620941090009201188
:1058D40061118219C321E319C319A319C319A3229E
:1058E400042A24220422042224222419E219E12273
:1058F400212A6132A22A6222412222222211C101DA
:105904004000E000E000E00100010001200940093E
:10591400600960098009A019A1118119E219C1095E
:10592400600120012001200100010001200100018B
:1059340020012001400140016009A011A1014001A2
:1059440020012001400140016001800180018001AB
:1059540080018009A009A009A009A001A009A0094B
:10596400C012211221120101A0018001A001A0098D
:10597400C001A001A001A009E009E001A001A00963
:10598400E009E00A000A001A8209E009C009C00916
:10599400E009E009E011E01A202281436443642A0B
:1059A400C33B0432E42AA32AE322C22AE32B2322A0
:1059B400E222E21A811260126022E222C212611A09
:1059C400811AA122C143C543C533642B2322E1229A
:1059D400E222C12B0233633B833B633B6343644357
:1059E400833B623B632B222B022B212B222B223362
:1059F40062334133422B222B0122C02AE03B8243F3
:105A040025322510A10040006000600060006000A5
:105A140040006000400040006000400060008000E2
:105A240080008000A0008000800080008000800052
:105A34008000A000A0008000800080008000A00002
:105A44008000800080008000800080008000800052
:105A540060008000800080008000A000A000A00002
:105A6400A00080008000800080008000A000A000D2
:105A7400A000A000C000C000A000A000A000C000C2
:105A8400C000E000E000E000C000E000E000E00052
:105A9400E0090009200900090000E000E001000914
:105AA400000900090009211161092101000100090F
:105AB40020116119A219C319C319A319C319C32247
:105AC400042A2521E419C311C211C211A111C1195B
